:100000000C942A000C943E000C943C000C943C0090
:100010000C943C000C943C000C943C000C943C0070
:100020000C943C000C943C000C943C000C943C0060
:100030000C943C000C943C000C943C000C943C0050
:100040000C943C000C943C000C943C000C943C0040
:100050000C943C0011241FBECFE5D8E0DEBFCDBF1D
:1000600010E0A0E6B0E001C01D92A136B107E1F7B3
:100070000E9456000C946A000C9400001F920F928C
:100080000FB60F9211248F9380916000882329F47A
:1000900081E080936000C09A03C010926000C09815
:1000A0008F910F900FBE0F901F901895B89A8A9855
:1000B00085B7836085BF8BB780648BBF7894FFCF93
:1000C000B89A8A98089585B7836085BF8BB7806496
:0800D0008BBF0895F894FFCFE7
:00000001FF
